{
  "contractName": "IDO",
  "abi": [
    {
      "inputs": [
        {
          "internalType": "address",
          "name": "_IDOTokenAddress",
          "type": "address"
        },
        {
          "internalType": "address payable",
          "name": "_withdrawAddress",
          "type": "address"
        }
      ],
      "stateMutability": "nonpayable",
      "type": "constructor"
    },
    {
      "anonymous": false,
      "inputs": [
        {
          "indexed": false,
          "internalType": "address",
          "name": "_addres",
          "type": "address"
        },
        {
          "indexed": false,
          "internalType": "uint256",
          "name": "_value",
          "type": "uint256"
        }
      ],
      "name": "BuyIDOToken",
      "type": "event"
    },
    {
      "inputs": [],
      "name": "IDOTokenAddress",
      "outputs": [
        {
          "internalType": "address",
          "name": "",
          "type": "address"
        }
      ],
      "stateMutability": "view",
      "type": "function",
      "constant": true
    },
    {
      "inputs": [],
      "name": "RoundID",
      "outputs": [
        {
          "internalType": "uint256",
          "name": "",
          "type": "uint256"
        }
      ],
      "stateMutability": "view",
      "type": "function",
      "constant": true
    },
    {
      "inputs": [
        {
          "internalType": "address",
          "name": "",
          "type": "address"
        },
        {
          "internalType": "uint256",
          "name": "",
          "type": "uint256"
        }
      ],
      "name": "Users",
      "outputs": [
        {
          "internalType": "uint256",
          "name": "",
          "type": "uint256"
        }
      ],
      "stateMutability": "view",
      "type": "function",
      "constant": true
    },
    {
      "inputs": [
        {
          "internalType": "address",
          "name": "",
          "type": "address"
        }
      ],
      "name": "UsersTotalValue",
      "outputs": [
        {
          "internalType": "uint256",
          "name": "",
          "type": "uint256"
        }
      ],
      "stateMutability": "view",
      "type": "function",
      "constant": true
    },
    {
      "inputs": [],
      "name": "currentRoundID",
      "outputs": [
        {
          "internalType": "uint256",
          "name": "",
          "type": "uint256"
        }
      ],
      "stateMutability": "view",
      "type": "function",
      "constant": true
    },
    {
      "inputs": [],
      "name": "withdrawAddress",
      "outputs": [
        {
          "internalType": "address payable",
          "name": "",
          "type": "address"
        }
      ],
      "stateMutability": "view",
      "type": "function",
      "constant": true
    },
    {
      "inputs": [
        {
          "internalType": "uint256",
          "name": "_start",
          "type": "uint256"
        },
        {
          "internalType": "uint256",
          "name": "_end",
          "type": "uint256"
        },
        {
          "internalType": "uint256",
          "name": "_roundValue",
          "type": "uint256"
        },
        {
          "internalType": "uint256",
          "name": "_maxValue",
          "type": "uint256"
        },
        {
          "internalType": "uint256",
          "name": "_minValue",
          "type": "uint256"
        },
        {
          "internalType": "uint256",
          "name": "_tokenRateToEth",
          "type": "uint256"
        }
      ],
      "name": "addRound",
      "outputs": [],
      "stateMutability": "nonpayable",
      "type": "function"
    },
    {
      "inputs": [
        {
          "internalType": "uint256",
          "name": "_roundID",
          "type": "uint256"
        }
      ],
      "name": "closeRound",
      "outputs": [],
      "stateMutability": "nonpayable",
      "type": "function"
    },
    {
      "inputs": [],
      "name": "getEthersForIDO",
      "outputs": [],
      "stateMutability": "payable",
      "type": "function",
      "payable": true
    }
  ],
  "bytecode": "0x60806040523480156200001157600080fd5b506040516200113638038062001136833981810160405281019062000037919062000147565b6001600460003373ffffffffffffffffffffffffffffffffffffffff1673ffffffffffffffffffffffffffffffffffffffff16815260200190815260200160002060006101000a81548160ff02191690831515021790555081600260006101000a81548173ffffffffffffffffffffffffffffffffffffffff021916908373ffffffffffffffffffffffffffffffffffffffff16021790555080600360006101000a81548173ffffffffffffffffffffffffffffffffffffffff021916908373ffffffffffffffffffffffffffffffffffffffff160217905550505062000204565b6000815190506200012a81620001d0565b92915050565b6000815190506200014181620001ea565b92915050565b600080604083850312156200015b57600080fd5b60006200016b8582860162000119565b92505060206200017e8582860162000130565b9150509250929050565b60006200019582620001b0565b9050919050565b6000620001a982620001b0565b9050919050565b600073ffffffffffffffffffffffffffffffffffffffff82169050919050565b620001db8162000188565b8114620001e757600080fd5b50565b620001f5816200019c565b81146200020157600080fd5b50565b610f2280620002146000396000f3fe6080604052600436106100865760003560e01c80634096c0a6116100595780634096c0a61461014757806373900f391461017257806388e01a98146101af578063a312c4f2146101d8578063f1f055951461020357610086565b80631063715b1461008b57806313e8544e146100b65780631581b600146100f35780633ff0751e1461011e575b600080fd5b34801561009757600080fd5b506100a061020d565b6040516100ad9190610d42565b60405180910390f35b3480156100c257600080fd5b506100dd60048036038101906100d891906108ff565b610213565b6040516100ea9190610d42565b60405180910390f35b3480156100ff57600080fd5b50610108610238565b6040516101159190610c1e565b60405180910390f35b34801561012a57600080fd5b506101456004803603810190610140919061098d565b61025e565b005b34801561015357600080fd5b5061015c61042f565b6040516101699190610c03565b60405180910390f35b34801561017e57600080fd5b50610199600480360381019061019491906108d6565b610455565b6040516101a69190610d42565b60405180910390f35b3480156101bb57600080fd5b506101d660048036038101906101d19190610964565b61046d565b005b3480156101e457600080fd5b506101ed61053a565b6040516101fa9190610d42565b60405180910390f35b61020b610540565b005b60005481565b6006602052816000526040600020602052806000526040600020600091509150505481565b600360009054906101000a900473ffffffffffffffffffffffffffffffffffffffff1681565b60011515600460003373ffffffffffffffffffffffffffffffffffffffff1673ffffffffffffffffffffffffffffffffffffffff16815260200190815260200160002060009054906101000a900460ff161515146102f1576040517f08c379a00000000000000000000000000000000000000000000000000000000081526004016102e890610cc2565b60405180910390fd5b600060015414610336576040517f08c379a000000000000000000000000000000000000000000000000000000000815260040161032d90610d22565b60405180910390fd5b60016000808282546103489190610d6e565b925050819055508560056000805481526020019081526020016000206000018190555084600560008054815260200190815260200160002060010181905550836005600080548152602001908152602001600020600201819055508260056000805481526020019081526020016000206003018190555081600560008054815260200190815260200160002060040181905550806005600080548152602001908152602001600020600501819055506001600560008054815260200190815260200160002060060160006101000a81548160ff021916908315150217905550505050505050565b600260009054906101000a900473ffffffffffffffffffffffffffffffffffffffff1681565b60076020528060005260406000206000915090505481565b60011515600460003373ffffffffffffffffffffffffffffffffffffffff1673ffffffffffffffffffffffffffffffffffffffff16815260200190815260200160002060009054906101000a900460ff16151514610500576040517f08c379a00000000000000000000000000000000000000000000000000000000081526004016104f790610cc2565b60405180910390fd5b600060018190555060006005600083815260200190815260200160002060060160006101000a81548160ff02191690831515021790555050565b60015481565b60056000600154815260200190815260200160002060000154421161059a576040517f08c379a000000000000000000000000000000000000000000000000000000000815260040161059190610c62565b60405180910390fd5b4260056000600154815260200190815260200160002060010154116105f4576040517f08c379a00000000000000000000000000000000000000000000000000000000081526004016105eb90610ce2565b60405180910390fd5b6001151560056000600154815260200190815260200160002060060160009054906101000a900460ff16151514610660576040517f08c379a000000000000000000000000000000000000000000000000000000000815260040161065790610d02565b60405180910390fd5b3460056000600154815260200190815260200160002060030154116106ba576040517f08c379a00000000000000000000000000000000000000000000000000000000081526004016106b190610ca2565b60405180910390fd5b346005600060015481526020019081526020016000206004015410610714576040517f08c379a000000000000000000000000000000000000000000000000000000000815260040161070b90610c82565b60405180910390fd5b6000600560006001548152602001908152602001600020600501543461073a9190610dc4565b90506000600260009054906101000a900473ffffffffffffffffffffffffffffffffffffffff1690508073ffffffffffffffffffffffffffffffffffffffff166340c10f1933846040518363ffffffff1660e01b815260040161079e929190610c39565b602060405180830381600087803b1580156107b857600080fd5b505af11580156107cc573d6000803e3d6000fd5b505050506040513d601f19601f820116820180604052508101906107f0919061093b565b50600360009054906101000a900473ffffffffffffffffffffffffffffffffffffffff1673ffffffffffffffffffffffffffffffffffffffff166108fc349081150290604051600060405180830381858888f19350505050158015610859573d6000803e3d6000fd5b507fa9448ed39d629fe6e9dd81170aaf1988fd6d787aea86c89c5653cf120e9a0077333460405161088b929190610c39565b60405180910390a15050565b6000813590506108a681610ea7565b92915050565b6000815190506108bb81610ebe565b92915050565b6000813590506108d081610ed5565b92915050565b6000602082840312156108e857600080fd5b60006108f684828501610897565b91505092915050565b6000806040838503121561091257600080fd5b600061092085828601610897565b9250506020610931858286016108c1565b9150509250929050565b60006020828403121561094d57600080fd5b600061095b848285016108ac565b91505092915050565b60006020828403121561097657600080fd5b6000610984848285016108c1565b91505092915050565b60008060008060008060c087890312156109a657600080fd5b60006109b489828a016108c1565b96505060206109c589828a016108c1565b95505060406109d689828a016108c1565b94505060606109e789828a016108c1565b93505060806109f889828a016108c1565b92505060a0610a0989828a016108c1565b9150509295509295509295565b610a1f81610e30565b82525050565b610a2e81610e1e565b82525050565b6000610a41601283610d5d565b91507f41637469766520616674657220737461727400000000000000000000000000006000830152602082019050919050565b6000610a81600983610d5d565b91507f4d696e206c696d697400000000000000000000000000000000000000000000006000830152602082019050919050565b6000610ac1600983610d5d565b91507f4d6178206c696d697400000000000000000000000000000000000000000000006000830152602082019050919050565b6000610b01600b83610d5d565b91507f4f6e6c792061646d696e730000000000000000000000000000000000000000006000830152602082019050919050565b6000610b41600f83610d5d565b91507f4265666f726520616e64206f6e6c7900000000000000000000000000000000006000830152602082019050919050565b6000610b81601083610d5d565b91507f4e6f742061637469766520726f756e64000000000000000000000000000000006000830152602082019050919050565b6000610bc1600e83610d5d565b91507f4f6e6c79206f6e6520726f756e640000000000000000000000000000000000006000830152602082019050919050565b610bfd81610e6e565b82525050565b6000602082019050610c186000830184610a25565b92915050565b6000602082019050610c336000830184610a16565b92915050565b6000604082019050610c4e6000830185610a25565b610c5b6020830184610bf4565b9392505050565b60006020820190508181036000830152610c7b81610a34565b9050919050565b60006020820190508181036000830152610c9b81610a74565b9050919050565b60006020820190508181036000830152610cbb81610ab4565b9050919050565b60006020820190508181036000830152610cdb81610af4565b9050919050565b60006020820190508181036000830152610cfb81610b34565b9050919050565b60006020820190508181036000830152610d1b81610b74565b9050919050565b60006020820190508181036000830152610d3b81610bb4565b9050919050565b6000602082019050610d576000830184610bf4565b92915050565b600082825260208201905092915050565b6000610d7982610e6e565b9150610d8483610e6e565b9250827fffffffffffffffffffffffffffffffffffffffffffffffffffffffffffffffff03821115610db957610db8610e78565b5b828201905092915050565b6000610dcf82610e6e565b9150610dda83610e6e565b9250817fffffffffffffffffffffffffffffffffffffffffffffffffffffffffffffffff0483118215151615610e1357610e12610e78565b5b828202905092915050565b6000610e2982610e4e565b9050919050565b6000610e3b82610e4e565b9050919050565b60008115159050919050565b600073ffffffffffffffffffffffffffffffffffffffff82169050919050565b6000819050919050565b7f4e487b7100000000000000000000000000000000000000000000000000000000600052601160045260246000fd5b610eb081610e1e565b8114610ebb57600080fd5b50565b610ec781610e42565b8114610ed257600080fd5b50565b610ede81610e6e565b8114610ee957600080fd5b5056fea26469706673582212207c4508b01268ebd5efe6d4c132fe10edf0bb872de5b5e8131a7b9eb4333b503464736f6c63430008000033",
  "immutableReferences": {},
  "source": "// SPDX-License-Identifier: MIT\npragma solidity ^0.8.0;\nimport \"./IERC20.sol\";\n\ncontract IDO {\n\n    event BuyIDOToken(address _addres, uint _value);\n\n    constructor(address _IDOTokenAddress, address payable _withdrawAddress) {\n        Admins[msg.sender] = true;\n        IDOTokenAddress = _IDOTokenAddress;\n        withdrawAddress = _withdrawAddress;\n    }\n\n    uint256 public RoundID;\n    uint256 public currentRoundID;\n    address public IDOTokenAddress;\n    address payable public withdrawAddress;\n\n    struct round {\n        uint256 start;\n        uint256 end;\n        uint256 roundValue; // we want to get from this Round of IDO\n        uint256 maxValue;\n        uint256 minValue;\n        uint256 tokenRateToEth;\n        bool active;\n    }\n\n    mapping(address => bool) Admins;\n    mapping(uint256 => round) Rounds;\n    mapping(address => mapping(uint256 => uint256)) public Users;\n    mapping(address => uint256) public UsersTotalValue;\n\n    modifier onlyAdmin() {\n        require(Admins[msg.sender] == true, \"Only admins\");\n        _;\n    }\n\n    function addRound(\n        uint256 _start,\n        uint256 _end,\n        uint256 _roundValue,\n        uint256 _maxValue,\n        uint256 _minValue,\n        uint256 _tokenRateToEth\n    ) public onlyAdmin {\n        require(currentRoundID == 0, \"Only one round\");\n        RoundID += 1;\n        Rounds[RoundID].start = _start;\n        Rounds[RoundID].end = _end;\n        Rounds[RoundID].roundValue = _roundValue;\n        Rounds[RoundID].maxValue = _maxValue;\n        Rounds[RoundID].minValue = _minValue;\n        Rounds[RoundID].tokenRateToEth = _tokenRateToEth;\n        Rounds[RoundID].active = true;\n    }\n\n    function closeRound(uint256 _roundID) public onlyAdmin {\n        currentRoundID = 0;\n        Rounds[_roundID].active = false;\n    }\n\n    function getEthersForIDO() public payable {\n        require(\n            block.timestamp > Rounds[currentRoundID].start,\n            \"Active after start\"\n        );\n        require(\n            Rounds[currentRoundID].end > block.timestamp,\n            \"Before and only\"\n        );\n        require(Rounds[currentRoundID].active == true, \"Not active round\");\n        require(Rounds[currentRoundID].maxValue > msg.value, \"Max limit\");\n        require(Rounds[currentRoundID].minValue < msg.value, \"Min limit\");\n\n        uint256 _value = msg.value * Rounds[currentRoundID].tokenRateToEth;\n        IERC20 _token = IERC20(IDOTokenAddress);\n        _token.mint(msg.sender, _value);\n        withdrawAddress.transfer(msg.value);\n        emit BuyIDOToken(msg.sender, msg.value);\n    }\n}\n",
  "sourcePath": "/Volumes/Disk D/My Documents/iOS Development/Bitbucket/SOLIDITY/IDO_Rinkeby/contracts/IDO.sol",
  "compiler": {
    "name": "solc",
    "version": "0.8.0+commit.c7dfd78e.Emscripten.clang"
  },
  "schemaVersion": "3.4.1",
  "updatedAt": "2021-08-10T22:14:33.087Z",
  "networkType": "ethereum",
  "devdoc": {
    "kind": "dev",
    "methods": {},
    "version": 1
  },
  "userdoc": {
    "kind": "user",
    "methods": {},
    "version": 1
  }
}